{
    "contractName": "Splitter",
    "abi": [
        {
            "constant": false,
            "inputs": [
                {
                    "name": "amount",
                    "type": "uint256"
                }
            ],
            "name": "withdraw",
            "outputs": [
                {
                    "name": "",
                    "type": "uint256"
                }
            ],
            "payable": false,
            "stateMutability": "nonpayable",
            "type": "function"
        },
        {
            "constant": true,
            "inputs": [
                {
                    "name": "name",
                    "type": "string"
                }
            ],
            "name": "getUser",
            "outputs": [
                {
                    "name": "addr",
                    "type": "address"
                },
                {
                    "name": "balance",
                    "type": "uint256"
                }
            ],
            "payable": false,
            "stateMutability": "view",
            "type": "function"
        },
        {
            "constant": false,
            "inputs": [],
            "name": "splitEther",
            "outputs": [],
            "payable": true,
            "stateMutability": "payable",
            "type": "function"
        },
        {
            "constant": true,
            "inputs": [],
            "name": "getContractBalance",
            "outputs": [
                {
                    "name": "",
                    "type": "uint256"
                }
            ],
            "payable": false,
            "stateMutability": "view",
            "type": "function"
        },
        {
            "constant": true,
            "inputs": [
                {
                    "name": "data",
                    "type": "bytes32"
                }
            ],
            "name": "convertAddress",
            "outputs": [
                {
                    "name": "",
                    "type": "address"
                }
            ],
            "payable": false,
            "stateMutability": "pure",
            "type": "function"
        },
        {
            "inputs": [],
            "payable": false,
            "stateMutability": "nonpayable",
            "type": "constructor"
        }
    ],
    "bytecode": "608060405234801561001057600080fd5b50604051806040016040528073ca35b7d915458ef540ade6068dfe2f44e8fa733c6001600160a01b03168152602001600081525060006040518060400160405280600581526020017f416c6963650000000000000000000000000000000000000000000000000000008152506040518082805190602001908083835b602083106100ab5780518252601f19909201916020918201910161008c565b51815160209384036101000a6000190180199092169116179052920194855250604080519485900382018520865181546001600160a01b0319166001600160a01b039091161781559582015160019096019590955583850185527314723a09acff6d2a60dcdf7aa4aff308fddc160c845260008482018190528551808701875260038082527f426f62000000000000000000000000000000000000000000000000000000000093820193845296519596919590945092508291908083835b602083106101885780518252601f199092019160209182019101610169565b51815160209384036101000a6000190180199092169116179052920194855250604080519485900382018520865181546001600160a01b0319166001600160a01b03909116178155958201516001909601959095558385018552734b0897b0513fdc7c541b6d9d7e929c4e5364d2db845260008482018190528551808701875260058082527f4361726f6c00000000000000000000000000000000000000000000000000000093820193845296519596919590945092508291908083835b602083106102655780518252601f199092019160209182019101610246565b51815160209384036101000a6000190180199092169116179052920194855250604051938490038101909320845181546001600160a01b0319166001600160a01b03909116178155939092015160019093019290925550610c499050806102cd6000396000f3fe60806040526004361061004a5760003560e01c80632e1a7d4d1461004f57806331feb6711461008b578063502b31d2146101615780636f9fb98a1461016b578063d0482a5b14610180575b600080fd5b34801561005b57600080fd5b506100796004803603602081101561007257600080fd5b50356101c6565b60408051918252519081900360200190f35b34801561009757600080fd5b5061013e600480360360208110156100ae57600080fd5b8101906020810181356401000000008111156100c957600080fd5b8201836020820111156100db57600080fd5b803590602001918460018302840111640100000000831117156100fd57600080fd5b91908080601f0160208091040260200160405190810160405280939291908181526020018383808284376000920191909152509295506104fe945050505050565b604080516001600160a01b03909316835260208301919091528051918290030190f35b6101696105da565b005b34801561017757600080fd5b5061007961096a565b34801561018c57600080fd5b506101aa600480360360208110156101a357600080fd5b503561096f565b604080516001600160a01b039092168252519081900360200190f35b60008082116101d457600080fd5b6101dc610c06565b6000604051806040016040528060058152602001600160d81b64416c696365028152506040518082805190602001908083835b6020831061022e5780518252601f19909201916020918201910161020f565b51815160209384036101000a60001901801990921691161790529201948552506040519384900301909220546001600160a01b031633141591506103129050576000604051806040016040528060058152602001600160d81b64416c696365028152506040518082805190602001908083835b602083106102c05780518252601f1990920191602091820191016102a1565b51815160209384036101000a600019018019909216911617905292019485525060408051948590038201852085820190915280546001600160a01b031685526001015490840152509091506104989050565b6000604051806040016040528060038152602001600160e91b622137b1028152506040518082805190602001908083835b602083106103625780518252601f199092019160209182019101610343565b51815160209384036101000a60001901801990921691161790529201948552506040519384900301909220546001600160a01b031633141591506103d39050576040805180820182526003808252600160e91b622137b10260208301908152925160009390918291908083836102c0565b6000604051806040016040528060058152602001600160da1b6410d85c9bdb028152506040518082805190602001908083835b602083106104255780518252601f199092019160209182019101610406565b51815160209384036101000a60001901801990921691161790529201948552506040519384900301909220546001600160a01b0316331415915061004a9050576040805180820182526005808252600160da1b6410d85c9bdb0260208301908152925160009390918291908083836102c0565b82816020015110156104a957600080fd5b30318311156104b757600080fd5b6104c5816020015184610975565b6020820152604051339084156108fc029085906000818181858888f193505050501580156104f7573d6000803e3d6000fd5b5050919050565b6000806000836040518082805190602001908083835b602083106105335780518252601f199092019160209182019101610514565b51815160209384036101000a600019018019909216911617905292019485525060405193849003810184205487516001600160a01b039091169460009450889350918291908401908083835b6020831061059e5780518252601f19909201916020918201910161057f565b51815160209384036101000a60001901801990921691161790529201948552506040519384900301909220600101549296929550919350505050565b6000604051806040016040528060058152602001600160d81b64416c696365028152506040518082805190602001908083835b6020831061062c5780518252601f19909201916020918201910161060d565b51815160209384036101000a60001901801990921691161790529201948552506040519384900301909220546001600160a01b031633149150610670905057600080fd5b600061067d3460026109be565b9050600061068c346002610a00565b905061071a6000604051806040016040528060038152602001600160e91b622137b1028152506040518082805190602001908083835b602083106106e15780518252601f1990920191602091820191016106c2565b51815160209384036101000a60001901801990921691161790529201948552506040519384900301909220600101549150849050610a42565b6000604051806040016040528060038152602001600160e91b622137b1028152506040518082805190602001908083835b6020831061076a5780518252601f19909201916020918201910161074b565b51815160209384036101000a60001901801990921691161790529201948552506040805194859003820185206001019590955583850185526005808552600160da1b6410d85c9bdb0291850191825294516107d29560009594509092508291908083836106e1565b6000604051806040016040528060058152602001600160da1b6410d85c9bdb028152506040518082805190602001908083835b602083106108245780518252601f199092019160209182019101610805565b51815160209384036101000a60001901801990921691161790529201948552506040805194859003820185206001019590955583850185526005808552600160d81b64416c6963650291850191825294516108e09560009594509092508291908083835b602083106108a75780518252601f199092019160209182019101610888565b51815160209384036101000a60001901801990921691161790529201948552506040519384900301909220600101549150839050610a42565b6000604051806040016040528060058152602001600160d81b64416c696365028152506040518082805190602001908083835b602083106109325780518252601f199092019160209182019101610913565b51815160209384036101000a600019018019909216911617905292019485525060405193849003019092206001019290925550505050565b303190565b60601c90565b60006109b783836040518060400160405280601e81526020017f536166654d6174683a207375627472616374696f6e206f766572666c6f770000815250610a9f565b9392505050565b60006109b783836040518060400160405280601a81526020017f536166654d6174683a206469766973696f6e206279207a65726f000000000000815250610b39565b60006109b783836040518060400160405280601881526020017f536166654d6174683a206d6f64756c6f206279207a65726f0000000000000000815250610ba1565b6000828201838110156109b75760408051600160e51b62461bcd02815260206004820152601b60248201527f536166654d6174683a206164646974696f6e206f766572666c6f770000000000604482015290519081900360640190fd5b60008184841115610b3157604051600160e51b62461bcd0281526004018080602001828103825283818151815260200191508051906020019080838360005b83811015610af6578181015183820152602001610ade565b50505050905090810190601f168015610b235780820380516001836020036101000a031916815260200191505b509250505060405180910390fd5b505050900390565b60008183610b8b57604051600160e51b62461bcd028152602060048201818152835160248401528351909283926044909101919085019080838360008315610af6578181015183820152602001610ade565b506000838581610b9757fe5b0495945050505050565b60008183610bf357604051600160e51b62461bcd028152602060048201818152835160248401528351909283926044909101919085019080838360008315610af6578181015183820152602001610ade565b50828481610bfd57fe5b06949350505050565b60408051808201909152600080825260208201529056fea165627a7a723058209daf4149595715bdfd637dba64b1d1d90d16667fd19ac360a13d379c52f07dd20029",
    "sourcePath": "/Users/icarus/eth/splitter/Projects/Splitter/contracts/Splitter.sol",
    "compiler": {
        "name": "solc",
        "version": "0.5.8+commit.23d335f2"
    },
    "functionHashes": {
        "convertAddress(bytes32)": "d0482a5b",
        "getContractBalance()": "6f9fb98a",
        "getUser(string)": "31feb671",
        "splitEther()": "502b31d2",
        "withdraw(uint256)": "2e1a7d4d"
    },
    "gasEstimates": {
        "creation": {
            "codeDepositCost": "629000",
            "executionCost": "77717",
            "totalCost": "706717"
        },
        "external": {
            "convertAddress(bytes32)": "330",
            "getContractBalance()": "641",
            "getUser(string)": "infinite",
            "splitEther()": "infinite",
            "withdraw(uint256)": "infinite"
        }
    }
}