{
  "contractName": "Splitter",
  "abi": [
    {
      "constant": true,
      "inputs": [
        {
          "name": "key",
          "type": "bytes32"
        }
      ],
      "name": "getUser",
      "outputs": [
        {
          "name": "addr",
          "type": "address"
        },
        {
          "name": "name",
          "type": "string"
        },
        {
          "name": "canSplitEther",
          "type": "bool"
        },
        {
          "name": "canReceiveSplittedEther",
          "type": "bool"
        },
        {
          "name": "isAdmin",
          "type": "bool"
        }
      ],
      "payable": false,
      "stateMutability": "view",
      "type": "function"
    },
    {
      "constant": true,
      "inputs": [
        {
          "name": "a",
          "type": "address"
        }
      ],
      "name": "toBytes32",
      "outputs": [
        {
          "name": "",
          "type": "bytes32"
        }
      ],
      "payable": false,
      "stateMutability": "pure",
      "type": "function"
    },
    {
      "constant": false,
      "inputs": [
        {
          "name": "key",
          "type": "bytes32"
        }
      ],
      "name": "remUser",
      "outputs": [],
      "payable": false,
      "stateMutability": "nonpayable",
      "type": "function"
    },
    {
      "constant": true,
      "inputs": [],
      "name": "getUserCount",
      "outputs": [
        {
          "name": "count",
          "type": "uint256"
        }
      ],
      "payable": false,
      "stateMutability": "view",
      "type": "function"
    },
    {
      "constant": true,
      "inputs": [
        {
          "name": "a",
          "type": "string"
        },
        {
          "name": "b",
          "type": "string"
        }
      ],
      "name": "compareStrings",
      "outputs": [
        {
          "name": "",
          "type": "bool"
        }
      ],
      "payable": false,
      "stateMutability": "pure",
      "type": "function"
    },
    {
      "constant": false,
      "inputs": [
        {
          "name": "key",
          "type": "bytes32"
        },
        {
          "name": "name",
          "type": "string"
        },
        {
          "name": "canSplitEther",
          "type": "bool"
        },
        {
          "name": "canReceiveSplittedEther",
          "type": "bool"
        },
        {
          "name": "isAdmin",
          "type": "bool"
        }
      ],
      "name": "newUser",
      "outputs": [],
      "payable": false,
      "stateMutability": "nonpayable",
      "type": "function"
    },
    {
      "constant": true,
      "inputs": [
        {
          "name": "data",
          "type": "bytes32"
        }
      ],
      "name": "convertAddress",
      "outputs": [
        {
          "name": "",
          "type": "address"
        }
      ],
      "payable": false,
      "stateMutability": "pure",
      "type": "function"
    },
    {
      "constant": false,
      "inputs": [
        {
          "name": "key",
          "type": "bytes32"
        },
        {
          "name": "name",
          "type": "string"
        },
        {
          "name": "canSplitEther",
          "type": "bool"
        },
        {
          "name": "canReceiveSplittedEther",
          "type": "bool"
        },
        {
          "name": "isAdmin",
          "type": "bool"
        }
      ],
      "name": "updateUser",
      "outputs": [],
      "payable": false,
      "stateMutability": "nonpayable",
      "type": "function"
    },
    {
      "constant": true,
      "inputs": [
        {
          "name": "index",
          "type": "uint256"
        }
      ],
      "name": "getUserAtIndex",
      "outputs": [
        {
          "name": "key",
          "type": "bytes32"
        }
      ],
      "payable": false,
      "stateMutability": "view",
      "type": "function"
    },
    {
      "inputs": [],
      "payable": true,
      "stateMutability": "payable",
      "type": "constructor"
    },
    {
      "anonymous": false,
      "inputs": [
        {
          "indexed": false,
          "name": "sender",
          "type": "address"
        },
        {
          "indexed": false,
          "name": "key",
          "type": "bytes32"
        },
        {
          "indexed": false,
          "name": "name",
          "type": "string"
        },
        {
          "indexed": false,
          "name": "canSplitEther",
          "type": "bool"
        },
        {
          "indexed": false,
          "name": "canReceiveSplittedEther",
          "type": "bool"
        },
        {
          "indexed": false,
          "name": "isAdmin",
          "type": "bool"
        }
      ],
      "name": "LogNewUser",
      "type": "event"
    },
    {
      "anonymous": false,
      "inputs": [
        {
          "indexed": false,
          "name": "sender",
          "type": "address"
        },
        {
          "indexed": false,
          "name": "key",
          "type": "bytes32"
        },
        {
          "indexed": false,
          "name": "name",
          "type": "string"
        },
        {
          "indexed": false,
          "name": "canSplitEther",
          "type": "bool"
        },
        {
          "indexed": false,
          "name": "canReceiveSplittedEther",
          "type": "bool"
        },
        {
          "indexed": false,
          "name": "isAdmin",
          "type": "bool"
        }
      ],
      "name": "LogUpdateUser",
      "type": "event"
    },
    {
      "anonymous": false,
      "inputs": [
        {
          "indexed": false,
          "name": "sender",
          "type": "address"
        },
        {
          "indexed": false,
          "name": "key",
          "type": "bytes32"
        }
      ],
      "name": "LogRemUser",
      "type": "event"
    },
    {
      "constant": false,
      "inputs": [
        {
          "name": "amount",
          "type": "uint256"
        }
      ],
      "name": "splitEther",
      "outputs": [],
      "payable": true,
      "stateMutability": "payable",
      "type": "function"
    },
    {
      "constant": false,
      "inputs": [
        {
          "name": "addr",
          "type": "bytes32"
        },
        {
          "name": "name",
          "type": "string"
        },
        {
          "name": "canSplitEther",
          "type": "bool"
        },
        {
          "name": "canReceiveSplittedEther",
          "type": "bool"
        },
        {
          "name": "isAdmin",
          "type": "bool"
        }
      ],
      "name": "registerUser",
      "outputs": [],
      "payable": false,
      "stateMutability": "nonpayable",
      "type": "function"
    },
    {
      "constant": true,
      "inputs": [
        {
          "name": "index",
          "type": "uint256"
        }
      ],
      "name": "getUserInfoAtIndex",
      "outputs": [
        {
          "name": "addr",
          "type": "address"
        },
        {
          "name": "name",
          "type": "string"
        },
        {
          "name": "userBalance",
          "type": "uint256"
        },
        {
          "name": "accountBalance",
          "type": "uint256"
        }
      ],
      "payable": false,
      "stateMutability": "view",
      "type": "function"
    },
    {
      "constant": true,
      "inputs": [
        {
          "name": "name",
          "type": "string"
        }
      ],
      "name": "getUserInfoByName",
      "outputs": [
        {
          "name": "addr",
          "type": "address"
        },
        {
          "name": "userBalance",
          "type": "uint256"
        }
      ],
      "payable": false,
      "stateMutability": "view",
      "type": "function"
    }
  ],
  "bytecode": "0x608060405233600360006101000a81548173ffffffffffffffffffffffffffffffffffffffff021916908373ffffffffffffffffffffffffffffffffffffffff160217905550611c80806100546000396000f3fe6080604052600436106100c25760003560e01c8063b5cb15f71161007f578063c49c77ff11610059578063c49c77ff14610739578063d0482a5b1461082f578063d97462c8146108aa578063ffcc7bbf146109a0576100c2565b8063b5cb15f714610569578063b7124eb514610594578063bed34bba146105c2576100c2565b80632da5b91f146100c757806345d00148146101bd5780636012cfb0146102cc5780636517579c146103c157806378ad0369146104c9578063925119911461052e575b600080fd5b3480156100d357600080fd5b506101bb600480360360a08110156100ea57600080fd5b81019080803590602001909291908035906020019064010000000081111561011157600080fd5b82018360208201111561012357600080fd5b8035906020019184600183028401116401000000008311171561014557600080fd5b91908080601f016020809104026020016040519081016040528093929190818152602001838380828437600081840152601f19601f8201169050808301925050505050505091929192908035151590602001909291908035151590602001909291908035151590602001909291905050506109ef565b005b3480156101c957600080fd5b50610283600480360360208110156101e057600080fd5b81019080803590602001906401000000008111156101fd57600080fd5b82018360208201111561020f57600080fd5b8035906020019184600183028401116401000000008311171561023157600080fd5b91908080601f016020809104026020016040519081016040528093929190818152602001838380828437600081840152601f19601f820116905080830192505050505050509192919290505050610a5d565b604051808373ffffffffffffffffffffffffffffffffffffffff1673ffffffffffffffffffffffffffffffffffffffff1681526020018281526020019250505060405180910390f35b3480156102d857600080fd5b50610305600480360360208110156102ef57600080fd5b8101908080359060200190929190505050610ccd565b604051808573ffffffffffffffffffffffffffffffffffffffff1673ffffffffffffffffffffffffffffffffffffffff16815260200180602001848152602001838152602001828103825285818151815260200191508051906020019080838360005b83811015610383578082015181840152602081019050610368565b50505050905090810190601f1680156103b05780820380516001836020036101000a031916815260200191505b509550505050505060405180910390f35b3480156103cd57600080fd5b506103fa600480360360208110156103e457600080fd5b8101908080359060200190929190505050610dc9565b604051808673ffffffffffffffffffffffffffffffffffffffff1673ffffffffffffffffffffffffffffffffffffffff16815260200180602001851515151581526020018415151515815260200183151515158152602001828103825286818151815260200191508051906020019080838360005b8381101561048a57808201518184015260208101905061046f565b50505050905090810190601f1680156104b75780820380516001836020036101000a031916815260200191505b50965050505050505060405180910390f35b3480156104d557600080fd5b50610518600480360360208110156104ec57600080fd5b81019080803573ffffffffffffffffffffffffffffffffffffffff169060200190929190505050610fcb565b6040518082815260200191505060405180910390f35b34801561053a57600080fd5b506105676004803603602081101561055157600080fd5b8101908080359060200190929190505050610ff2565b005b34801561057557600080fd5b5061057e6110d6565b6040518082815260200191505060405180910390f35b6105c0600480360360208110156105aa57600080fd5b81019080803590602001909291905050506110e7565b005b3480156105ce57600080fd5b5061071f600480360360408110156105e557600080fd5b810190808035906020019064010000000081111561060257600080fd5b82018360208201111561061457600080fd5b8035906020019184600183028401116401000000008311171561063657600080fd5b91908080601f016020809104026020016040519081016040528093929190818152602001838380828437600081840152601f19601f8201169050808301925050505050505091929192908035906020019064010000000081111561069957600080fd5b8201836020820111156106ab57600080fd5b803590602001918460018302840111640100000000831117156106cd57600080fd5b91908080601f016020809104026020016040519081016040528093929190818152602001838380828437600081840152601f19601f8201169050808301925050505050505091929192905050506112f0565b604051808215151515815260200191505060405180910390f35b34801561074557600080fd5b5061082d600480360360a081101561075c57600080fd5b81019080803590602001909291908035906020019064010000000081111561078357600080fd5b82018360208201111561079557600080fd5b803590602001918460018302840111640100000000831117156107b757600080fd5b91908080601f016020809104026020016040519081016040528093929190818152602001838380828437600081840152601f19601f8201169050808301925050505050505091929192908035151590602001909291908035151590602001909291908035151590602001909291905050506113df565b005b34801561083b57600080fd5b506108686004803603602081101561085257600080fd5b810190808035906020019092919050505061157b565b604051808273ffffffffffffffffffffffffffffffffffffffff1673ffffffffffffffffffffffffffffffffffffffff16815260200191505060405180910390f35b3480156108b657600080fd5b5061099e600480360360a08110156108cd57600080fd5b8101908080359060200190929190803590602001906401000000008111156108f457600080fd5b82018360208201111561090657600080fd5b8035906020019184600183028401116401000000008311171561092857600080fd5b91908080601f016020809104026020016040519081016040528093929190818152602001838380828437600081840152601f19601f820116905080830192505050505050509192919290803515159060200190929190803515159060200190929190803515159060200190929190505050611588565b005b3480156109ac57600080fd5b506109d9600480360360208110156109c357600080fd5b8101908080359060200190929190505050611779565b6040518082815260200191505060405180910390f35b600360009054906101000a900473ffffffffffffffffffffffffffffffffffffffff1673ffffffffffffffffffffffffffffffffffffffff163373ffffffffffffffffffffffffffffffffffffffff1614610a4957600080fd5b610a5685858585856113df565b5050505050565b6000806000610a6a6110d6565b905060008090505b81811015610cc5576000610a8582611779565b905060003073ffffffffffffffffffffffffffffffffffffffff1663d0482a5b836040518263ffffffff1660e01b81526004018082815260200191505060206040518083038186803b158015610ada57600080fd5b505afa158015610aee573d6000803e3d6000fd5b505050506040513d6020811015610b0457600080fd5b810190808051906020019092919050505090506060610b2283610dc9565b5050509150503073ffffffffffffffffffffffffffffffffffffffff1663bed34bba89836040518363ffffffff1660e01b8152600401808060200180602001838103835285818151815260200191508051906020019080838360005b83811015610b99578082015181840152602081019050610b7e565b50505050905090810190601f168015610bc65780820380516001836020036101000a031916815260200191505b50838103825284818151815260200191508051906020019080838360005b83811015610bff578082015181840152602081019050610be4565b50505050905090810190601f168015610c2c5780820380516001836020036101000a031916815260200191505b5094505050505060206040518083038186803b158015610c4b57600080fd5b505afa158015610c5f573d6000803e3d6000fd5b505050506040513d6020811015610c7557600080fd5b810190808051906020019092919050505015610cb557818273ffffffffffffffffffffffffffffffffffffffff1631819150965096505050505050610cc8565b5050508080600101915050610a72565b50505b915091565b600060606000806000610cdf86611779565b905060003073ffffffffffffffffffffffffffffffffffffffff1663d0482a5b836040518263ffffffff1660e01b81526004018082815260200191505060206040518083038186803b158015610d3457600080fd5b505afa158015610d48573d6000803e3d6000fd5b505050506040513d6020811015610d5e57600080fd5b810190808051906020019092919050505090506060610d7c83610dc9565b50505091505081818373ffffffffffffffffffffffffffffffffffffffff16313073ffffffffffffffffffffffffffffffffffffffff163183935096509650965096505050509193509193565b600060606000806000610de686600061179690919063ffffffff16565b610e3b576040517f08c379a0000000000000000000000000000000000000000000000000000000008152600401808060200182810382526024815260200180611ba06024913960400191505060405180910390fd5b60006002600088815260200190815260200160002090503073ffffffffffffffffffffffffffffffffffffffff1663d0482a5b886040518263ffffffff1660e01b81526004018082815260200191505060206040518083038186803b158015610ea357600080fd5b505afa158015610eb7573d6000803e3d6000fd5b505050506040513d6020811015610ecd57600080fd5b8101908080519060200190929190505050816000018260010160009054906101000a900460ff168360010160019054906101000a900460ff168460010160029054906101000a900460ff16849450838054600181600116156101000203166002900480601f016020809104026020016040519081016040528092919081815260200182805460018160011615610100020316600290048015610fb05780601f10610f8557610100808354040283529160200191610fb0565b820191906000526020600020905b815481529060010190602001808311610f9357829003601f168201915b50505050509350955095509550955095505091939590929450565b600060608273ffffffffffffffffffffffffffffffffffffffff16901b60001b9050919050565b6110068160006117ea90919063ffffffff16565b600260008281526020019081526020016000206000808201600061102a9190611a39565b6001820160006101000a81549060ff02191690556001820160016101000a81549060ff02191690556001820160026101000a81549060ff021916905550507f46491ce5a052f723801f8cec71d8f0a11dbf8932364470f15b225dbf65ad74e33382604051808373ffffffffffffffffffffffffffffffffffffffff1673ffffffffffffffffffffffffffffffffffffffff1681526020018281526020019250505060405180910390a150565b60006110e260006118fb565b905090565b600033905060006110f733610fcb565b905060008061110583610dc9565b50509250509150600073ffffffffffffffffffffffffffffffffffffffff168273ffffffffffffffffffffffffffffffffffffffff16141561114657600080fd5b8061115057600080fd5b848273ffffffffffffffffffffffffffffffffffffffff1631101561117457600080fd5b600061117e6110d6565b9050600381101561118e57600080fd5b600060018203878161119c57fe5b04905060008090505b828110156112e65760006111b882611779565b905060003073ffffffffffffffffffffffffffffffffffffffff1663d0482a5b836040518263ffffffff1660e01b81526004018082815260200191505060206040518083038186803b15801561120d57600080fd5b505afa158015611221573d6000803e3d6000fd5b505050506040513d602081101561123757600080fd5b810190808051906020019092919050505090508873ffffffffffffffffffffffffffffffffffffffff168173ffffffffffffffffffffffffffffffffffffffff16146112d757606061128883610dc9565b5050509150508173ffffffffffffffffffffffffffffffffffffffff166108fc869081150290604051600060405180830381858888f193505050501580156112d4573d6000803e3d6000fd5b50505b505080806001019150506111a5565b5050505050505050565b6000816040516020018082805190602001908083835b602083106113295780518252602082019150602081019050602083039250611306565b6001836020036101000a03801982511681845116808217855250505050505090500191505060405160208183030381529060405280519060200120836040516020018082805190602001908083835b6020831061139b5780518252602082019150602081019050602083039250611378565b6001836020036101000a0380198251168184511680821785525050505050509050019150506040516020818303038152906040528051906020012014905092915050565b6113f385600061190c90919063ffffffff16565b600060026000878152602001908152602001600020905084816000019080519060200190611422929190611a81565b50838160010160006101000a81548160ff021916908315150217905550828160010160016101000a81548160ff021916908315150217905550818160010160026101000a81548160ff0219169083151502179055507f6a1b9a4cbc8f57fc57014fbe22d0b11d5a358ac783175e7c70208a71011568a2338787878787604051808773ffffffffffffffffffffffffffffffffffffffff1673ffffffffffffffffffffffffffffffffffffffff16815260200186815260200180602001851515151581526020018415151515815260200183151515158152602001828103825286818151815260200191508051906020019080838360005b83811015611534578082015181840152602081019050611519565b50505050905090810190601f1680156115615780820380516001836020036101000a031916815260200191505b5097505050505050505060405180910390a1505050505050565b60008160601c9050919050565b61159c85600061179690919063ffffffff16565b6115f1576040517f08c379a0000000000000000000000000000000000000000000000000000000008152600401808060200182810382526027815260200180611c2e6027913960400191505060405180910390fd5b600060026000878152602001908152602001600020905084816000019080519060200190611620929190611a81565b50838160010160006101000a81548160ff021916908315150217905550828160010160016101000a81548160ff021916908315150217905550818160010160026101000a81548160ff0219169083151502179055507f386c5385d3586f995514e81167d6df21c7cd4f08098cf61871ce56b4463cbd75338787878787604051808773ffffffffffffffffffffffffffffffffffffffff1673ffffffffffffffffffffffffffffffffffffffff16815260200186815260200180602001851515151581526020018415151515815260200183151515158152602001828103825286818151815260200191508051906020019080838360005b83811015611732578082015181840152602081019050611717565b50505050905090810190601f16801561175f5780820380516001836020036101000a031916815260200191505b5097505050505050505060405180910390a1505050505050565b600061178f826000611a1590919063ffffffff16565b9050919050565b600080836001018054905014156117b057600090506117e4565b818360010184600001600085815260200190815260200160002054815481106117d557fe5b90600052602060002001541490505b92915050565b6117f48282611796565b611849576040517f08c379a0000000000000000000000000000000000000000000000000000000008152600401808060200182810382526035815260200180611bc46035913960400191505060405180910390fd5b600082600101600161185a856118fb565b038154811061186557fe5b9060005260206000200154905060008360000160008481526020019081526020016000205490508084600001600084815260200190815260200160002081905550818460010182815481106118b657fe5b906000526020600020018190555083600001600084815260200190815260200160002060009055836001018054809190600190036118f49190611b01565b5050505050565b600081600101805490509050919050565b6000801b811415611968576040517f08c379a0000000000000000000000000000000000000000000000000000000008152600401808060200182810382526028815260200180611b786028913960400191505060405180910390fd5b6119728282611796565b156119c8576040517f08c379a0000000000000000000000000000000000000000000000000000000008152600401808060200182810382526035815260200180611bf96035913960400191505060405180910390fd5b600182600101829080600181540180825580915050906001820390600052602060002001600090919290919091505503826000016000838152602001908152602001600020819055505050565b6000826001018281548110611a2657fe5b9060005260206000200154905092915050565b50805460018160011615610100020316600290046000825580601f10611a5f5750611a7e565b601f016020900490600052602060002090810190611a7d9190611b2d565b5b50565b828054600181600116156101000203166002900490600052602060002090601f016020900481019282601f10611ac257805160ff1916838001178555611af0565b82800160010185558215611af0579182015b82811115611aef578251825591602001919060010190611ad4565b5b509050611afd9190611b2d565b5090565b815481835581811115611b2857818360005260206000209182019101611b279190611b52565b5b505050565b611b4f91905b80821115611b4b576000816000905550600101611b33565b5090565b90565b611b7491905b80821115611b70576000816000905550600101611b58565b5090565b9056fe556e6f7264657265644b65795365742831303029202d204b65792063616e6e6f742062652030783043616e27742067657420612075736572207468617420646f65736e27742065786973742e556e6f7264657265644b65795365742831303229202d204b657920646f6573206e6f7420657869737420696e20746865207365742e556e6f7264657265644b65795365742831303129202d204b657920616c72656164792065786973747320696e20746865207365742e43616e27742075706461746520612075736572207468617420646f65736e27742065786973742ea165627a7a72305820ddeb240fa36e867f570250fe6b14b46db1603e030ba404553134bf5e9d03720c0029",
  "source": "pragma solidity 0.5.8;\n\nimport \"./UserCRUD.sol\";\n\ncontract Splitter is UserCRUD {\n    \n    address owner;\n    constructor() public payable {\n        owner = msg.sender;\n    }\n\n    function splitEther(uint amount) public payable{\n        address sender = msg.sender;\n        bytes32 key = toBytes32(msg.sender);\n        (address addr,, bool canSplitEther,,) = getUser(key);\n        require(addr != address(0x0));\n        require(canSplitEther);\n        require(addr.balance >= amount);\n        uint count =  getUserCount();\n        require(count >= 3);\n        uint transferAmount =  amount / (count-1);\n        for (uint i = 0; i < count; i++) {\n            bytes32 userKey = getUserAtIndex(i);\n            address payable recepientAddress = this.convertAddress(userKey);\n            if(recepientAddress != sender){\n                (,string memory recepientName,,,) = getUser(userKey);\n                recepientAddress.transfer(transferAmount);\n            }\n        }\n    }\n\n    function registerUser(bytes32 addr, string memory name, bool canSplitEther, bool canReceiveSplittedEther, bool isAdmin) public {\n        require (msg.sender == owner);\n        newUser(addr, name, canSplitEther, canReceiveSplittedEther, isAdmin);\n    }\n    \n    function getUserInfoAtIndex(uint index) public view returns(address addr, string memory name, uint userBalance, uint accountBalance) {\n        bytes32 userKey = getUserAtIndex(index);\n        address payable recepientAddress = this.convertAddress(userKey);\n        (,string memory recepientName,,,) = getUser(userKey);\n        return (recepientAddress, recepientName, recepientAddress.balance, address(this).balance);\n    }\n    \n    function getUserInfoByName(string memory name) public view returns(address addr, uint userBalance) {\n        uint count =  getUserCount();\n        for (uint i = 0; i < count; i++) {\n            bytes32 userKey = getUserAtIndex(i);\n            address payable recepientAddress = this.convertAddress(userKey);\n            (,string memory recepientName,,,) = getUser(userKey);\n            if(this.compareStrings(name, recepientName)){\n                return (recepientAddress, recepientAddress.balance);\n            }\n        }\n    }\n    \n}",
  "sourcePath": "/Users/icarus/eth/splitter/Splitter/contracts/Splitter.sol",
  "compiler": {
    "name": "solc",
    "version": "0.5.8+commit.23d335f2.Emscripten.clang"
  },
  "schemaVersion": "3.0.16",
  "updatedAt": "2019-10-12T11:24:36.457Z",
  "devdoc": {
    "methods": {}
  },
  "userdoc": {
    "methods": {}
  }
}