{
  "contractName": "Splitter",
  "abi": [
    {
      "constant": true,
      "inputs": [
        {
          "name": "key",
          "type": "bytes32"
        }
      ],
      "name": "getUser",
      "outputs": [
        {
          "name": "addr",
          "type": "address"
        },
        {
          "name": "name",
          "type": "string"
        },
        {
          "name": "canSplitEther",
          "type": "bool"
        },
        {
          "name": "canReceiveSplittedEther",
          "type": "bool"
        },
        {
          "name": "isAdmin",
          "type": "bool"
        }
      ],
      "payable": false,
      "stateMutability": "view",
      "type": "function"
    },
    {
      "constant": true,
      "inputs": [
        {
          "name": "a",
          "type": "address"
        }
      ],
      "name": "toBytes32",
      "outputs": [
        {
          "name": "",
          "type": "bytes32"
        }
      ],
      "payable": false,
      "stateMutability": "pure",
      "type": "function"
    },
    {
      "constant": false,
      "inputs": [
        {
          "name": "key",
          "type": "bytes32"
        }
      ],
      "name": "remUser",
      "outputs": [],
      "payable": false,
      "stateMutability": "nonpayable",
      "type": "function"
    },
    {
      "constant": true,
      "inputs": [],
      "name": "getUserCount",
      "outputs": [
        {
          "name": "count",
          "type": "uint256"
        }
      ],
      "payable": false,
      "stateMutability": "view",
      "type": "function"
    },
    {
      "constant": true,
      "inputs": [
        {
          "name": "a",
          "type": "string"
        },
        {
          "name": "b",
          "type": "string"
        }
      ],
      "name": "compareStrings",
      "outputs": [
        {
          "name": "",
          "type": "bool"
        }
      ],
      "payable": false,
      "stateMutability": "pure",
      "type": "function"
    },
    {
      "constant": false,
      "inputs": [
        {
          "name": "key",
          "type": "bytes32"
        },
        {
          "name": "name",
          "type": "string"
        },
        {
          "name": "canSplitEther",
          "type": "bool"
        },
        {
          "name": "canReceiveSplittedEther",
          "type": "bool"
        },
        {
          "name": "isAdmin",
          "type": "bool"
        }
      ],
      "name": "newUser",
      "outputs": [],
      "payable": false,
      "stateMutability": "nonpayable",
      "type": "function"
    },
    {
      "constant": true,
      "inputs": [
        {
          "name": "data",
          "type": "bytes32"
        }
      ],
      "name": "convertAddress",
      "outputs": [
        {
          "name": "",
          "type": "address"
        }
      ],
      "payable": false,
      "stateMutability": "pure",
      "type": "function"
    },
    {
      "constant": false,
      "inputs": [
        {
          "name": "key",
          "type": "bytes32"
        },
        {
          "name": "name",
          "type": "string"
        },
        {
          "name": "canSplitEther",
          "type": "bool"
        },
        {
          "name": "canReceiveSplittedEther",
          "type": "bool"
        },
        {
          "name": "isAdmin",
          "type": "bool"
        }
      ],
      "name": "updateUser",
      "outputs": [],
      "payable": false,
      "stateMutability": "nonpayable",
      "type": "function"
    },
    {
      "constant": true,
      "inputs": [
        {
          "name": "index",
          "type": "uint256"
        }
      ],
      "name": "getUserAtIndex",
      "outputs": [
        {
          "name": "key",
          "type": "bytes32"
        }
      ],
      "payable": false,
      "stateMutability": "view",
      "type": "function"
    },
    {
      "inputs": [],
      "payable": true,
      "stateMutability": "payable",
      "type": "constructor"
    },
    {
      "payable": true,
      "stateMutability": "payable",
      "type": "fallback"
    },
    {
      "anonymous": false,
      "inputs": [
        {
          "indexed": false,
          "name": "sender",
          "type": "address"
        },
        {
          "indexed": false,
          "name": "key",
          "type": "bytes32"
        },
        {
          "indexed": false,
          "name": "name",
          "type": "string"
        },
        {
          "indexed": false,
          "name": "canSplitEther",
          "type": "bool"
        },
        {
          "indexed": false,
          "name": "canReceiveSplittedEther",
          "type": "bool"
        },
        {
          "indexed": false,
          "name": "isAdmin",
          "type": "bool"
        }
      ],
      "name": "LogNewUser",
      "type": "event"
    },
    {
      "anonymous": false,
      "inputs": [
        {
          "indexed": false,
          "name": "sender",
          "type": "address"
        },
        {
          "indexed": false,
          "name": "key",
          "type": "bytes32"
        },
        {
          "indexed": false,
          "name": "name",
          "type": "string"
        },
        {
          "indexed": false,
          "name": "canSplitEther",
          "type": "bool"
        },
        {
          "indexed": false,
          "name": "canReceiveSplittedEther",
          "type": "bool"
        },
        {
          "indexed": false,
          "name": "isAdmin",
          "type": "bool"
        }
      ],
      "name": "LogUpdateUser",
      "type": "event"
    },
    {
      "anonymous": false,
      "inputs": [
        {
          "indexed": false,
          "name": "sender",
          "type": "address"
        },
        {
          "indexed": false,
          "name": "key",
          "type": "bytes32"
        }
      ],
      "name": "LogRemUser",
      "type": "event"
    },
    {
      "constant": false,
      "inputs": [],
      "name": "splitEther",
      "outputs": [],
      "payable": true,
      "stateMutability": "payable",
      "type": "function"
    },
    {
      "constant": false,
      "inputs": [
        {
          "name": "addr",
          "type": "bytes32"
        },
        {
          "name": "name",
          "type": "string"
        },
        {
          "name": "canSplitEther",
          "type": "bool"
        },
        {
          "name": "canReceiveSplittedEther",
          "type": "bool"
        },
        {
          "name": "isAdmin",
          "type": "bool"
        }
      ],
      "name": "registerUser",
      "outputs": [],
      "payable": false,
      "stateMutability": "nonpayable",
      "type": "function"
    },
    {
      "constant": true,
      "inputs": [
        {
          "name": "index",
          "type": "uint256"
        }
      ],
      "name": "getUserInfoAtIndex",
      "outputs": [
        {
          "name": "addr",
          "type": "address"
        },
        {
          "name": "name",
          "type": "string"
        },
        {
          "name": "userBalance",
          "type": "uint256"
        },
        {
          "name": "accountBalance",
          "type": "uint256"
        }
      ],
      "payable": false,
      "stateMutability": "view",
      "type": "function"
    },
    {
      "constant": true,
      "inputs": [
        {
          "name": "name",
          "type": "string"
        }
      ],
      "name": "getUserInfoByName",
      "outputs": [
        {
          "name": "addr",
          "type": "address"
        },
        {
          "name": "userBalance",
          "type": "uint256"
        }
      ],
      "payable": false,
      "stateMutability": "view",
      "type": "function"
    },
    {
      "constant": false,
      "inputs": [],
      "name": "getBalance",
      "outputs": [
        {
          "name": "",
          "type": "uint256"
        }
      ],
      "payable": false,
      "stateMutability": "nonpayable",
      "type": "function"
    },
    {
      "constant": true,
      "inputs": [],
      "name": "getOwner",
      "outputs": [
        {
          "name": "",
          "type": "address"
        }
      ],
      "payable": false,
      "stateMutability": "view",
      "type": "function"
    }
  ],
  "bytecode": "0x608060405233600360006101000a81548173ffffffffffffffffffffffffffffffffffffffff021916908373ffffffffffffffffffffffffffffffffffffffff160217905550611d4f806100546000396000f3fe6080604052600436106100e85760003560e01c8063893d20e81161008a578063c49c77ff11610059578063c49c77ff146107ba578063d0482a5b146108b0578063d97462c81461092b578063ffcc7bbf14610a21576100e8565b8063893d20e81461058657806392511991146105dd578063b5cb15f714610618578063bed34bba14610643576100e8565b8063502b31d2116100c6578063502b31d21461031a5780636012cfb0146103245780636517579c1461041957806378ad036914610521576100e8565b806312065fe0146100ea5780632da5b91f1461011557806345d001481461020b575b005b3480156100f657600080fd5b506100ff610a70565b6040518082815260200191505060405180910390f35b34801561012157600080fd5b50610209600480360360a081101561013857600080fd5b81019080803590602001909291908035906020019064010000000081111561015f57600080fd5b82018360208201111561017157600080fd5b8035906020019184600183028401116401000000008311171561019357600080fd5b91908080601f016020809104026020016040519081016040528093929190818152602001838380828437600081840152601f19601f820116905080830192505050505050509192919290803515159060200190929190803515159060200190929190803515159060200190929190505050610a8f565b005b34801561021757600080fd5b506102d16004803603602081101561022e57600080fd5b810190808035906020019064010000000081111561024b57600080fd5b82018360208201111561025d57600080fd5b8035906020019184600183028401116401000000008311171561027f57600080fd5b91908080601f016020809104026020016040519081016040528093929190818152602001838380828437600081840152601f19601f820116905080830192505050505050509192919290505050610afd565b604051808373ffffffffffffffffffffffffffffffffffffffff1673ffffffffffffffffffffffffffffffffffffffff1681526020018281526020019250505060405180910390f35b610322610d6d565b005b34801561033057600080fd5b5061035d6004803603602081101561034757600080fd5b8101908080359060200190929190505050610f7b565b604051808573ffffffffffffffffffffffffffffffffffffffff1673ffffffffffffffffffffffffffffffffffffffff16815260200180602001848152602001838152602001828103825285818151815260200191508051906020019080838360005b838110156103db5780820151818401526020810190506103c0565b50505050905090810190601f1680156104085780820380516001836020036101000a031916815260200191505b509550505050505060405180910390f35b34801561042557600080fd5b506104526004803603602081101561043c57600080fd5b8101908080359060200190929190505050611077565b604051808673ffffffffffffffffffffffffffffffffffffffff1673ffffffffffffffffffffffffffffffffffffffff16815260200180602001851515151581526020018415151515815260200183151515158152602001828103825286818151815260200191508051906020019080838360005b838110156104e25780820151818401526020810190506104c7565b50505050905090810190601f16801561050f5780820380516001836020036101000a031916815260200191505b50965050505050505060405180910390f35b34801561052d57600080fd5b506105706004803603602081101561054457600080fd5b81019080803573ffffffffffffffffffffffffffffffffffffffff169060200190929190505050611279565b6040518082815260200191505060405180910390f35b34801561059257600080fd5b5061059b6112a0565b604051808273ffffffffffffffffffffffffffffffffffffffff1673ffffffffffffffffffffffffffffffffffffffff16815260200191505060405180910390f35b3480156105e957600080fd5b506106166004803603602081101561060057600080fd5b81019080803590602001909291905050506112ca565b005b34801561062457600080fd5b5061062d6113ae565b6040518082815260200191505060405180910390f35b34801561064f57600080fd5b506107a06004803603604081101561066657600080fd5b810190808035906020019064010000000081111561068357600080fd5b82018360208201111561069557600080fd5b803590602001918460018302840111640100000000831117156106b757600080fd5b91908080601f016020809104026020016040519081016040528093929190818152602001838380828437600081840152601f19601f8201169050808301925050505050505091929192908035906020019064010000000081111561071a57600080fd5b82018360208201111561072c57600080fd5b8035906020019184600183028401116401000000008311171561074e57600080fd5b91908080601f016020809104026020016040519081016040528093929190818152602001838380828437600081840152601f19601f8201169050808301925050505050505091929192905050506113bf565b604051808215151515815260200191505060405180910390f35b3480156107c657600080fd5b506108ae600480360360a08110156107dd57600080fd5b81019080803590602001909291908035906020019064010000000081111561080457600080fd5b82018360208201111561081657600080fd5b8035906020019184600183028401116401000000008311171561083857600080fd5b91908080601f016020809104026020016040519081016040528093929190818152602001838380828437600081840152601f19601f8201169050808301925050505050505091929192908035151590602001909291908035151590602001909291908035151590602001909291905050506114ae565b005b3480156108bc57600080fd5b506108e9600480360360208110156108d357600080fd5b810190808035906020019092919050505061164a565b604051808273ffffffffffffffffffffffffffffffffffffffff1673ffffffffffffffffffffffffffffffffffffffff16815260200191505060405180910390f35b34801561093757600080fd5b50610a1f600480360360a081101561094e57600080fd5b81019080803590602001909291908035906020019064010000000081111561097557600080fd5b82018360208201111561098757600080fd5b803590602001918460018302840111640100000000831117156109a957600080fd5b91908080601f016020809104026020016040519081016040528093929190818152602001838380828437600081840152601f19601f820116905080830192505050505050509192919290803515159060200190929190803515159060200190929190803515159060200190929190505050611657565b005b348015610a2d57600080fd5b50610a5a60048036036020811015610a4457600080fd5b8101908080359060200190929190505050611848565b6040518082815260200191505060405180910390f35b60003073ffffffffffffffffffffffffffffffffffffffff1631905090565b600360009054906101000a900473ffffffffffffffffffffffffffffffffffffffff1673ffffffffffffffffffffffffffffffffffffffff163373ffffffffffffffffffffffffffffffffffffffff1614610ae957600080fd5b610af685858585856114ae565b5050505050565b6000806000610b0a6113ae565b905060008090505b81811015610d65576000610b2582611848565b905060003073ffffffffffffffffffffffffffffffffffffffff1663d0482a5b836040518263ffffffff1660e01b81526004018082815260200191505060206040518083038186803b158015610b7a57600080fd5b505afa158015610b8e573d6000803e3d6000fd5b505050506040513d6020811015610ba457600080fd5b810190808051906020019092919050505090506060610bc283611077565b5050509150503073ffffffffffffffffffffffffffffffffffffffff1663bed34bba89836040518363ffffffff1660e01b8152600401808060200180602001838103835285818151815260200191508051906020019080838360005b83811015610c39578082015181840152602081019050610c1e565b50505050905090810190601f168015610c665780820380516001836020036101000a031916815260200191505b50838103825284818151815260200191508051906020019080838360005b83811015610c9f578082015181840152602081019050610c84565b50505050905090810190601f168015610ccc5780820380516001836020036101000a031916815260200191505b5094505050505060206040518083038186803b158015610ceb57600080fd5b505afa158015610cff573d6000803e3d6000fd5b505050506040513d6020811015610d1557600080fd5b810190808051906020019092919050505015610d5557818273ffffffffffffffffffffffffffffffffffffffff1631819150965096505050505050610d68565b5050508080600101915050610b12565b50505b915091565b600034905060003390506000610d8233611279565b9050600080610d9083611077565b50509250509150600073ffffffffffffffffffffffffffffffffffffffff168273ffffffffffffffffffffffffffffffffffffffff161415610dd157600080fd5b80610ddb57600080fd5b848273ffffffffffffffffffffffffffffffffffffffff16311015610dff57600080fd5b6000610e096113ae565b90506003811015610e1957600080fd5b6000600182038781610e2757fe5b04905060008090505b82811015610f71576000610e4382611848565b905060003073ffffffffffffffffffffffffffffffffffffffff1663d0482a5b836040518263ffffffff1660e01b81526004018082815260200191505060206040518083038186803b158015610e9857600080fd5b505afa158015610eac573d6000803e3d6000fd5b505050506040513d6020811015610ec257600080fd5b810190808051906020019092919050505090508873ffffffffffffffffffffffffffffffffffffffff168173ffffffffffffffffffffffffffffffffffffffff1614610f62576060610f1383611077565b5050509150508173ffffffffffffffffffffffffffffffffffffffff166108fc869081150290604051600060405180830381858888f19350505050158015610f5f573d6000803e3d6000fd5b50505b50508080600101915050610e30565b5050505050505050565b600060606000806000610f8d86611848565b905060003073ffffffffffffffffffffffffffffffffffffffff1663d0482a5b836040518263ffffffff1660e01b81526004018082815260200191505060206040518083038186803b158015610fe257600080fd5b505afa158015610ff6573d6000803e3d6000fd5b505050506040513d602081101561100c57600080fd5b81019080805190602001909291905050509050606061102a83611077565b50505091505081818373ffffffffffffffffffffffffffffffffffffffff16313073ffffffffffffffffffffffffffffffffffffffff163183935096509650965096505050509193509193565b60006060600080600061109486600061186590919063ffffffff16565b6110e9576040517f08c379a0000000000000000000000000000000000000000000000000000000008152600401808060200182810382526024815260200180611c6f6024913960400191505060405180910390fd5b60006002600088815260200190815260200160002090503073ffffffffffffffffffffffffffffffffffffffff1663d0482a5b886040518263ffffffff1660e01b81526004018082815260200191505060206040518083038186803b15801561115157600080fd5b505afa158015611165573d6000803e3d6000fd5b505050506040513d602081101561117b57600080fd5b8101908080519060200190929190505050816000018260010160009054906101000a900460ff168360010160019054906101000a900460ff168460010160029054906101000a900460ff16849450838054600181600116156101000203166002900480601f01602080910402602001604051908101604052809291908181526020018280546001816001161561010002031660029004801561125e5780601f106112335761010080835404028352916020019161125e565b820191906000526020600020905b81548152906001019060200180831161124157829003601f168201915b50505050509350955095509550955095505091939590929450565b600060608273ffffffffffffffffffffffffffffffffffffffff16901b60001b9050919050565b6000600360009054906101000a900473ffffffffffffffffffffffffffffffffffffffff16905090565b6112de8160006118b990919063ffffffff16565b60026000828152602001908152602001600020600080820160006113029190611b08565b6001820160006101000a81549060ff02191690556001820160016101000a81549060ff02191690556001820160026101000a81549060ff021916905550507f46491ce5a052f723801f8cec71d8f0a11dbf8932364470f15b225dbf65ad74e33382604051808373ffffffffffffffffffffffffffffffffffffffff1673ffffffffffffffffffffffffffffffffffffffff1681526020018281526020019250505060405180910390a150565b60006113ba60006119ca565b905090565b6000816040516020018082805190602001908083835b602083106113f857805182526020820191506020810190506020830392506113d5565b6001836020036101000a03801982511681845116808217855250505050505090500191505060405160208183030381529060405280519060200120836040516020018082805190602001908083835b6020831061146a5780518252602082019150602081019050602083039250611447565b6001836020036101000a0380198251168184511680821785525050505050509050019150506040516020818303038152906040528051906020012014905092915050565b6114c28560006119db90919063ffffffff16565b6000600260008781526020019081526020016000209050848160000190805190602001906114f1929190611b50565b50838160010160006101000a81548160ff021916908315150217905550828160010160016101000a81548160ff021916908315150217905550818160010160026101000a81548160ff0219169083151502179055507f6a1b9a4cbc8f57fc57014fbe22d0b11d5a358ac783175e7c70208a71011568a2338787878787604051808773ffffffffffffffffffffffffffffffffffffffff1673ffffffffffffffffffffffffffffffffffffffff16815260200186815260200180602001851515151581526020018415151515815260200183151515158152602001828103825286818151815260200191508051906020019080838360005b838110156116035780820151818401526020810190506115e8565b50505050905090810190601f1680156116305780820380516001836020036101000a031916815260200191505b5097505050505050505060405180910390a1505050505050565b60008160601c9050919050565b61166b85600061186590919063ffffffff16565b6116c0576040517f08c379a0000000000000000000000000000000000000000000000000000000008152600401808060200182810382526027815260200180611cfd6027913960400191505060405180910390fd5b6000600260008781526020019081526020016000209050848160000190805190602001906116ef929190611b50565b50838160010160006101000a81548160ff021916908315150217905550828160010160016101000a81548160ff021916908315150217905550818160010160026101000a81548160ff0219169083151502179055507f386c5385d3586f995514e81167d6df21c7cd4f08098cf61871ce56b4463cbd75338787878787604051808773ffffffffffffffffffffffffffffffffffffffff1673ffffffffffffffffffffffffffffffffffffffff16815260200186815260200180602001851515151581526020018415151515815260200183151515158152602001828103825286818151815260200191508051906020019080838360005b838110156118015780820151818401526020810190506117e6565b50505050905090810190601f16801561182e5780820380516001836020036101000a031916815260200191505b5097505050505050505060405180910390a1505050505050565b600061185e826000611ae490919063ffffffff16565b9050919050565b6000808360010180549050141561187f57600090506118b3565b818360010184600001600085815260200190815260200160002054815481106118a457fe5b90600052602060002001541490505b92915050565b6118c38282611865565b611918576040517f08c379a0000000000000000000000000000000000000000000000000000000008152600401808060200182810382526035815260200180611c936035913960400191505060405180910390fd5b6000826001016001611929856119ca565b038154811061193457fe5b90600052602060002001549050600083600001600084815260200190815260200160002054905080846000016000848152602001908152602001600020819055508184600101828154811061198557fe5b906000526020600020018190555083600001600084815260200190815260200160002060009055836001018054809190600190036119c39190611bd0565b5050505050565b600081600101805490509050919050565b6000801b811415611a37576040517f08c379a0000000000000000000000000000000000000000000000000000000008152600401808060200182810382526028815260200180611c476028913960400191505060405180910390fd5b611a418282611865565b15611a97576040517f08c379a0000000000000000000000000000000000000000000000000000000008152600401808060200182810382526035815260200180611cc86035913960400191505060405180910390fd5b600182600101829080600181540180825580915050906001820390600052602060002001600090919290919091505503826000016000838152602001908152602001600020819055505050565b6000826001018281548110611af557fe5b9060005260206000200154905092915050565b50805460018160011615610100020316600290046000825580601f10611b2e5750611b4d565b601f016020900490600052602060002090810190611b4c9190611bfc565b5b50565b828054600181600116156101000203166002900490600052602060002090601f016020900481019282601f10611b9157805160ff1916838001178555611bbf565b82800160010185558215611bbf579182015b82811115611bbe578251825591602001919060010190611ba3565b5b509050611bcc9190611bfc565b5090565b815481835581811115611bf757818360005260206000209182019101611bf69190611c21565b5b505050565b611c1e91905b80821115611c1a576000816000905550600101611c02565b5090565b90565b611c4391905b80821115611c3f576000816000905550600101611c27565b5090565b9056fe556e6f7264657265644b65795365742831303029202d204b65792063616e6e6f742062652030783043616e27742067657420612075736572207468617420646f65736e27742065786973742e556e6f7264657265644b65795365742831303229202d204b657920646f6573206e6f7420657869737420696e20746865207365742e556e6f7264657265644b65795365742831303129202d204b657920616c72656164792065786973747320696e20746865207365742e43616e27742075706461746520612075736572207468617420646f65736e27742065786973742ea165627a7a7230582034d2acba5839afc0e4eea70fd801ec59e4b91d824e73af3fa80bf4ead8e6d32d0029",
  "source": "pragma solidity 0.5.8;\n\nimport \"./UserCRUD.sol\";\n\ncontract Splitter is UserCRUD {\n    \n    address owner;\n    constructor() public payable {\n        owner = msg.sender;\n    }\n\t\n    function splitEther() public payable{\n        uint amount = msg.value;\n        address sender = msg.sender;\n        bytes32 key = toBytes32(msg.sender);\n        (address addr,, bool canSplitEther,,) = getUser(key);\n        require(addr != address(0x0));\n        require(canSplitEther);\n        require(addr.balance >= amount);\n        uint count =  getUserCount();\n        require(count >= 3);\n        uint transferAmount =  amount / (count-1);\n        for (uint i = 0; i < count; i++) {\n            bytes32 userKey = getUserAtIndex(i);\n            address payable recepientAddress = this.convertAddress(userKey);\n            if(recepientAddress != sender){\n                (,string memory recepientName,,,) = getUser(userKey);\n                recepientAddress.transfer(transferAmount);\n            }\n        }\n    }\n\n    function registerUser(bytes32 addr, string memory name, bool canSplitEther, bool canReceiveSplittedEther, bool isAdmin) public {\n        require (msg.sender == owner);\n        newUser(addr, name, canSplitEther, canReceiveSplittedEther, isAdmin);\n    }\n    \n    function getUserInfoAtIndex(uint index) public view returns(address addr, string memory name, uint userBalance, uint accountBalance) {\n        bytes32 userKey = getUserAtIndex(index);\n        address payable recepientAddress = this.convertAddress(userKey);\n        (,string memory recepientName,,,) = getUser(userKey);\n        return (recepientAddress, recepientName, recepientAddress.balance, address(this).balance);\n    }\n    \n    function getUserInfoByName(string memory name) public view returns(address addr, uint userBalance) {\n        uint count =  getUserCount();\n        for (uint i = 0; i < count; i++) {\n            bytes32 userKey = getUserAtIndex(i);\n            address payable recepientAddress = this.convertAddress(userKey);\n            (,string memory recepientName,,,) = getUser(userKey);\n            if(this.compareStrings(name, recepientName)){\n                return (recepientAddress, recepientAddress.balance);\n            }\n        }\n    }\n\t\n    function () external payable {\n    }\n\t\n    function getBalance() public returns (uint){\n        return address(this).balance;\n    }\n\t\n    function getOwner() public view returns (address){\n        return owner;\n\t}\n}",
  "sourcePath": "/Users/icarus/eth/splitter/Projects/Splitter/contracts/Splitter.sol",
  "compiler": {
    "name": "solc",
    "version": "0.5.8+commit.23d335f2.Emscripten.clang"
  },
  "schemaVersion": "3.0.16",
  "updatedAt": "2019-10-15T23:03:22.672Z",
  "devdoc": {
    "methods": {}
  },
  "userdoc": {
    "methods": {}
  }
}