{
  "contractName": "UserCRUD",
  "abi": [
    {
      "anonymous": false,
      "inputs": [
        {
          "indexed": false,
          "name": "sender",
          "type": "address"
        },
        {
          "indexed": false,
          "name": "key",
          "type": "bytes32"
        },
        {
          "indexed": false,
          "name": "name",
          "type": "string"
        },
        {
          "indexed": false,
          "name": "canSplitEther",
          "type": "bool"
        },
        {
          "indexed": false,
          "name": "canReceiveSplittedEther",
          "type": "bool"
        },
        {
          "indexed": false,
          "name": "isAdmin",
          "type": "bool"
        }
      ],
      "name": "LogNewUser",
      "type": "event"
    },
    {
      "anonymous": false,
      "inputs": [
        {
          "indexed": false,
          "name": "sender",
          "type": "address"
        },
        {
          "indexed": false,
          "name": "key",
          "type": "bytes32"
        },
        {
          "indexed": false,
          "name": "name",
          "type": "string"
        },
        {
          "indexed": false,
          "name": "canSplitEther",
          "type": "bool"
        },
        {
          "indexed": false,
          "name": "canReceiveSplittedEther",
          "type": "bool"
        },
        {
          "indexed": false,
          "name": "isAdmin",
          "type": "bool"
        }
      ],
      "name": "LogUpdateUser",
      "type": "event"
    },
    {
      "anonymous": false,
      "inputs": [
        {
          "indexed": false,
          "name": "sender",
          "type": "address"
        },
        {
          "indexed": false,
          "name": "key",
          "type": "bytes32"
        }
      ],
      "name": "LogRemUser",
      "type": "event"
    },
    {
      "constant": false,
      "inputs": [
        {
          "name": "key",
          "type": "bytes32"
        },
        {
          "name": "name",
          "type": "string"
        },
        {
          "name": "canSplitEther",
          "type": "bool"
        },
        {
          "name": "canReceiveSplittedEther",
          "type": "bool"
        },
        {
          "name": "isAdmin",
          "type": "bool"
        }
      ],
      "name": "newUser",
      "outputs": [],
      "payable": false,
      "stateMutability": "nonpayable",
      "type": "function"
    },
    {
      "constant": false,
      "inputs": [
        {
          "name": "key",
          "type": "bytes32"
        },
        {
          "name": "name",
          "type": "string"
        },
        {
          "name": "canSplitEther",
          "type": "bool"
        },
        {
          "name": "canReceiveSplittedEther",
          "type": "bool"
        },
        {
          "name": "isAdmin",
          "type": "bool"
        }
      ],
      "name": "updateUser",
      "outputs": [],
      "payable": false,
      "stateMutability": "nonpayable",
      "type": "function"
    },
    {
      "constant": false,
      "inputs": [
        {
          "name": "key",
          "type": "bytes32"
        }
      ],
      "name": "remUser",
      "outputs": [],
      "payable": false,
      "stateMutability": "nonpayable",
      "type": "function"
    },
    {
      "constant": true,
      "inputs": [
        {
          "name": "key",
          "type": "bytes32"
        }
      ],
      "name": "getUser",
      "outputs": [
        {
          "name": "addr",
          "type": "address"
        },
        {
          "name": "name",
          "type": "string"
        },
        {
          "name": "canSplitEther",
          "type": "bool"
        },
        {
          "name": "canReceiveSplittedEther",
          "type": "bool"
        },
        {
          "name": "isAdmin",
          "type": "bool"
        }
      ],
      "payable": false,
      "stateMutability": "view",
      "type": "function"
    },
    {
      "constant": true,
      "inputs": [],
      "name": "getUserCount",
      "outputs": [
        {
          "name": "count",
          "type": "uint256"
        }
      ],
      "payable": false,
      "stateMutability": "view",
      "type": "function"
    },
    {
      "constant": true,
      "inputs": [
        {
          "name": "index",
          "type": "uint256"
        }
      ],
      "name": "getUserAtIndex",
      "outputs": [
        {
          "name": "key",
          "type": "bytes32"
        }
      ],
      "payable": false,
      "stateMutability": "view",
      "type": "function"
    },
    {
      "constant": true,
      "inputs": [
        {
          "name": "data",
          "type": "bytes32"
        }
      ],
      "name": "convertAddress",
      "outputs": [
        {
          "name": "",
          "type": "address"
        }
      ],
      "payable": false,
      "stateMutability": "pure",
      "type": "function"
    },
    {
      "constant": true,
      "inputs": [
        {
          "name": "a",
          "type": "address"
        }
      ],
      "name": "toBytes32",
      "outputs": [
        {
          "name": "",
          "type": "bytes32"
        }
      ],
      "payable": false,
      "stateMutability": "pure",
      "type": "function"
    },
    {
      "constant": true,
      "inputs": [
        {
          "name": "a",
          "type": "string"
        },
        {
          "name": "b",
          "type": "string"
        }
      ],
      "name": "compareStrings",
      "outputs": [
        {
          "name": "",
          "type": "bool"
        }
      ],
      "payable": false,
      "stateMutability": "pure",
      "type": "function"
    }
  ],
  "bytecode": "0x608060405234801561001057600080fd5b506112d1806100206000396000f3fe608060405234801561001057600080fd5b50600436106100935760003560e01c8063bed34bba11610066578063bed34bba14610237578063c49c77ff146103a1578063d0482a5b1461048a578063d97462c8146104f8578063ffcc7bbf146105e157610093565b80636517579c1461009857806378ad03691461019357806392511991146101eb578063b5cb15f714610219575b600080fd5b6100c4600480360360208110156100ae57600080fd5b8101908080359060200190929190505050610623565b604051808673ffffffffffffffffffffffffffffffffffffffff1673ffffffffffffffffffffffffffffffffffffffff16815260200180602001851515151581526020018415151515815260200183151515158152602001828103825286818151815260200191508051906020019080838360005b83811015610154578082015181840152602081019050610139565b50505050905090810190601f1680156101815780820380516001836020036101000a031916815260200191505b50965050505050505060405180910390f35b6101d5600480360360208110156101a957600080fd5b81019080803573ffffffffffffffffffffffffffffffffffffffff169060200190929190505050610825565b6040518082815260200191505060405180910390f35b6102176004803603602081101561020157600080fd5b810190808035906020019092919050505061084c565b005b610221610930565b6040518082815260200191505060405180910390f35b6103876004803603604081101561024d57600080fd5b810190808035906020019064010000000081111561026a57600080fd5b82018360208201111561027c57600080fd5b8035906020019184600183028401116401000000008311171561029e57600080fd5b91908080601f016020809104026020016040519081016040528093929190818152602001838380828437600081840152601f19601f8201169050808301925050505050505091929192908035906020019064010000000081111561030157600080fd5b82018360208201111561031357600080fd5b8035906020019184600183028401116401000000008311171561033557600080fd5b91908080601f016020809104026020016040519081016040528093929190818152602001838380828437600081840152601f19601f820116905080830192505050505050509192919290505050610941565b604051808215151515815260200191505060405180910390f35b610488600480360360a08110156103b757600080fd5b8101908080359060200190929190803590602001906401000000008111156103de57600080fd5b8201836020820111156103f057600080fd5b8035906020019184600183028401116401000000008311171561041257600080fd5b91908080601f016020809104026020016040519081016040528093929190818152602001838380828437600081840152601f19601f820116905080830192505050505050509192919290803515159060200190929190803515159060200190929190803515159060200190929190505050610a30565b005b6104b6600480360360208110156104a057600080fd5b8101908080359060200190929190505050610bcc565b604051808273ffffffffffffffffffffffffffffffffffffffff1673ffffffffffffffffffffffffffffffffffffffff16815260200191505060405180910390f35b6105df600480360360a081101561050e57600080fd5b81019080803590602001909291908035906020019064010000000081111561053557600080fd5b82018360208201111561054757600080fd5b8035906020019184600183028401116401000000008311171561056957600080fd5b91908080601f016020809104026020016040519081016040528093929190818152602001838380828437600081840152601f19601f820116905080830192505050505050509192919290803515159060200190929190803515159060200190929190803515159060200190929190505050610bd9565b005b61060d600480360360208110156105f757600080fd5b8101908080359060200190929190505050610dca565b6040518082815260200191505060405180910390f35b600060606000806000610640866000610de790919063ffffffff16565b610695576040517f08c379a00000000000000000000000000000000000000000000000000000000081526004018080602001828103825260248152602001806111f16024913960400191505060405180910390fd5b60006002600088815260200190815260200160002090503073ffffffffffffffffffffffffffffffffffffffff1663d0482a5b886040518263ffffffff1660e01b81526004018082815260200191505060206040518083038186803b1580156106fd57600080fd5b505afa158015610711573d6000803e3d6000fd5b505050506040513d602081101561072757600080fd5b8101908080519060200190929190505050816000018260010160009054906101000a900460ff168360010160019054906101000a900460ff168460010160029054906101000a900460ff16849450838054600181600116156101000203166002900480601f01602080910402602001604051908101604052809291908181526020018280546001816001161561010002031660029004801561080a5780601f106107df5761010080835404028352916020019161080a565b820191906000526020600020905b8154815290600101906020018083116107ed57829003601f168201915b50505050509350955095509550955095505091939590929450565b600060608273ffffffffffffffffffffffffffffffffffffffff16901b60001b9050919050565b610860816000610e3b90919063ffffffff16565b6002600082815260200190815260200160002060008082016000610884919061108a565b6001820160006101000a81549060ff02191690556001820160016101000a81549060ff02191690556001820160026101000a81549060ff021916905550507f46491ce5a052f723801f8cec71d8f0a11dbf8932364470f15b225dbf65ad74e33382604051808373ffffffffffffffffffffffffffffffffffffffff1673ffffffffffffffffffffffffffffffffffffffff1681526020018281526020019250505060405180910390a150565b600061093c6000610f4c565b905090565b6000816040516020018082805190602001908083835b6020831061097a5780518252602082019150602081019050602083039250610957565b6001836020036101000a03801982511681845116808217855250505050505090500191505060405160208183030381529060405280519060200120836040516020018082805190602001908083835b602083106109ec57805182526020820191506020810190506020830392506109c9565b6001836020036101000a0380198251168184511680821785525050505050509050019150506040516020818303038152906040528051906020012014905092915050565b610a44856000610f5d90919063ffffffff16565b600060026000878152602001908152602001600020905084816000019080519060200190610a739291906110d2565b50838160010160006101000a81548160ff021916908315150217905550828160010160016101000a81548160ff021916908315150217905550818160010160026101000a81548160ff0219169083151502179055507f6a1b9a4cbc8f57fc57014fbe22d0b11d5a358ac783175e7c70208a71011568a2338787878787604051808773ffffffffffffffffffffffffffffffffffffffff1673ffffffffffffffffffffffffffffffffffffffff16815260200186815260200180602001851515151581526020018415151515815260200183151515158152602001828103825286818151815260200191508051906020019080838360005b83811015610b85578082015181840152602081019050610b6a565b50505050905090810190601f168015610bb25780820380516001836020036101000a031916815260200191505b5097505050505050505060405180910390a1505050505050565b60008160601c9050919050565b610bed856000610de790919063ffffffff16565b610c42576040517f08c379a000000000000000000000000000000000000000000000000000000000815260040180806020018281038252602781526020018061127f6027913960400191505060405180910390fd5b600060026000878152602001908152602001600020905084816000019080519060200190610c719291906110d2565b50838160010160006101000a81548160ff021916908315150217905550828160010160016101000a81548160ff021916908315150217905550818160010160026101000a81548160ff0219169083151502179055507f386c5385d3586f995514e81167d6df21c7cd4f08098cf61871ce56b4463cbd75338787878787604051808773ffffffffffffffffffffffffffffffffffffffff1673ffffffffffffffffffffffffffffffffffffffff16815260200186815260200180602001851515151581526020018415151515815260200183151515158152602001828103825286818151815260200191508051906020019080838360005b83811015610d83578082015181840152602081019050610d68565b50505050905090810190601f168015610db05780820380516001836020036101000a031916815260200191505b5097505050505050505060405180910390a1505050505050565b6000610de082600061106690919063ffffffff16565b9050919050565b60008083600101805490501415610e015760009050610e35565b81836001018460000160008581526020019081526020016000205481548110610e2657fe5b90600052602060002001541490505b92915050565b610e458282610de7565b610e9a576040517f08c379a00000000000000000000000000000000000000000000000000000000081526004018080602001828103825260358152602001806112156035913960400191505060405180910390fd5b6000826001016001610eab85610f4c565b0381548110610eb657fe5b906000526020600020015490506000836000016000848152602001908152602001600020549050808460000160008481526020019081526020016000208190555081846001018281548110610f0757fe5b90600052602060002001819055508360000160008481526020019081526020016000206000905583600101805480919060019003610f459190611152565b5050505050565b600081600101805490509050919050565b6000801b811415610fb9576040517f08c379a00000000000000000000000000000000000000000000000000000000081526004018080602001828103825260288152602001806111c96028913960400191505060405180910390fd5b610fc38282610de7565b15611019576040517f08c379a000000000000000000000000000000000000000000000000000000000815260040180806020018281038252603581526020018061124a6035913960400191505060405180910390fd5b600182600101829080600181540180825580915050906001820390600052602060002001600090919290919091505503826000016000838152602001908152602001600020819055505050565b600082600101828154811061107757fe5b9060005260206000200154905092915050565b50805460018160011615610100020316600290046000825580601f106110b057506110cf565b601f0160209004906000526020600020908101906110ce919061117e565b5b50565b828054600181600116156101000203166002900490600052602060002090601f016020900481019282601f1061111357805160ff1916838001178555611141565b82800160010185558215611141579182015b82811115611140578251825591602001919060010190611125565b5b50905061114e919061117e565b5090565b8154818355818111156111795781836000526020600020918201910161117891906111a3565b5b505050565b6111a091905b8082111561119c576000816000905550600101611184565b5090565b90565b6111c591905b808211156111c15760008160009055506001016111a9565b5090565b9056fe556e6f7264657265644b65795365742831303029202d204b65792063616e6e6f742062652030783043616e27742067657420612075736572207468617420646f65736e27742065786973742e556e6f7264657265644b65795365742831303229202d204b657920646f6573206e6f7420657869737420696e20746865207365742e556e6f7264657265644b65795365742831303129202d204b657920616c72656164792065786973747320696e20746865207365742e43616e27742075706461746520612075736572207468617420646f65736e27742065786973742ea165627a7a723058203e104fc15db2a647c6b2fb6cd4cdc794ad030ac41010ffb0fab75451053151c40029",
  "source": "pragma solidity 0.5.8;\n\nimport \"./HitchensUnorderedKeySet.sol\";\n\ncontract UserCRUD {\n    \n    using HitchensUnorderedKeySetLib for HitchensUnorderedKeySetLib.Set;\n    HitchensUnorderedKeySetLib.Set widgetSet;\n    \n    struct UserStruct {\n        string name;\n        bool canSplitEther;\n        bool canReceiveSplittedEther;\n        bool isAdmin;\n    }\n    \n    mapping(bytes32 => UserStruct) users;\n    \n    event LogNewUser(address sender, bytes32 key, string name, bool canSplitEther, bool canReceiveSplittedEther, bool isAdmin);\n    event LogUpdateUser(address sender, bytes32 key, string name, bool canSplitEther, bool canReceiveSplittedEther, bool isAdmin);    \n    event LogRemUser(address sender, bytes32 key);\n    \n    function newUser(bytes32 key, string memory name, bool canSplitEther, bool canReceiveSplittedEther, bool isAdmin) public {\n        widgetSet.insert(key); // Note that this will fail automatically if the key already exists.\n        UserStruct storage w = users[key];\n        w.name = name;\n        w.canSplitEther = canSplitEther;\n        w.canReceiveSplittedEther = canReceiveSplittedEther;\n        w.isAdmin = isAdmin;\n        emit LogNewUser(msg.sender, key, name, canSplitEther, canReceiveSplittedEther, isAdmin);\n    }\n    \n    function updateUser(bytes32 key, string memory name, bool canSplitEther, bool canReceiveSplittedEther, bool isAdmin) public {\n        require(widgetSet.exists(key), \"Can't update a user that doesn't exist.\");\n        UserStruct storage w = users[key];\n        w.name = name;\n        w.canSplitEther = canSplitEther;\n        w.canReceiveSplittedEther = canReceiveSplittedEther;\n        w.isAdmin = isAdmin;\n        emit LogUpdateUser(msg.sender, key, name, canSplitEther, canReceiveSplittedEther, isAdmin);\n    }\n    \n    function remUser(bytes32 key) public {\n        widgetSet.remove(key); // Note that this will fail automatically if the key doesn't exist\n        delete users[key];\n        emit LogRemUser(msg.sender, key);\n    }\n    \n    function getUser(bytes32 key) public view returns(address addr, string memory name, bool canSplitEther, bool canReceiveSplittedEther, bool isAdmin) {\n        require(widgetSet.exists(key), \"Can't get a user that doesn't exist.\");\n        UserStruct storage w = users[key];\n        return(this.convertAddress(key), w.name, w.canSplitEther, w.canReceiveSplittedEther, w.isAdmin);\n    }\n    \n    function getUserCount() public view returns(uint count) {\n        return widgetSet.count();\n    }\n    \n    function getUserAtIndex(uint index) public view returns(bytes32 key) {\n        return widgetSet.keyAtIndex(index);\n    }\n    function convertAddress(bytes32 data) external pure returns (address payable) {\n        return address(uint160(bytes20(data)));\n    }\n    \n    function toBytes32(address a) public pure returns (bytes32) {\n        return bytes32(uint256(a) << 96 );\n    }\n    \n    function compareStrings (string memory a, string memory b) public pure \n       returns (bool) {\n        return (keccak256(abi.encodePacked((a))) == keccak256(abi.encodePacked((b))) );\n    }\n}\n",
  "sourcePath": "/Users/icarus/eth/splitter/Projects/Splitter/contracts/UserCRUD.sol",
  "compiler": {
    "name": "solc",
    "version": "0.5.8+commit.23d335f2.Emscripten.clang"
  },
  "schemaVersion": "3.0.16",
  "updatedAt": "2019-10-18T10:35:48.526Z",
  "devdoc": {
    "methods": {}
  },
  "userdoc": {
    "methods": {}
  }
}